{
  "_format": "hh-sol-artifact-1",
  "contractName": "MockERC20",
  "sourceName": "contracts/mocks/MockERC20.sol",
  "abi": [
    {
      "inputs": [
        {
          "internalType": "string",
          "name": "name",
          "type": "string"
        },
        {
          "internalType": "string",
          "name": "symbol",
          "type": "string"
        }
      ],
      "stateMutability": "nonpayable",
      "type": "constructor"
    },
    {
      "inputs": [
        {
          "internalType": "address",
          "name": "spender",
          "type": "address"
        },
        {
          "internalType": "uint256",
          "name": "allowance",
          "type": "uint256"
        },
        {
          "internalType": "uint256",
          "name": "needed",
          "type": "uint256"
        }
      ],
      "name": "ERC20InsufficientAllowance",
      "type": "error"
    },
    {
      "inputs": [
        {
          "internalType": "address",
          "name": "sender",
          "type": "address"
        },
        {
          "internalType": "uint256",
          "name": "balance",
          "type": "uint256"
        },
        {
          "internalType": "uint256",
          "name": "needed",
          "type": "uint256"
        }
      ],
      "name": "ERC20InsufficientBalance",
      "type": "error"
    },
    {
      "inputs": [
        {
          "internalType": "address",
          "name": "approver",
          "type": "address"
        }
      ],
      "name": "ERC20InvalidApprover",
      "type": "error"
    },
    {
      "inputs": [
        {
          "internalType": "address",
          "name": "receiver",
          "type": "address"
        }
      ],
      "name": "ERC20InvalidReceiver",
      "type": "error"
    },
    {
      "inputs": [
        {
          "internalType": "address",
          "name": "sender",
          "type": "address"
        }
      ],
      "name": "ERC20InvalidSender",
      "type": "error"
    },
    {
      "inputs": [
        {
          "internalType": "address",
          "name": "spender",
          "type": "address"
        }
      ],
      "name": "ERC20InvalidSpender",
      "type": "error"
    },
    {
      "inputs": [
        {
          "internalType": "address",
          "name": "owner",
          "type": "address"
        }
      ],
      "name": "OwnableInvalidOwner",
      "type": "error"
    },
    {
      "inputs": [
        {
          "internalType": "address",
          "name": "account",
          "type": "address"
        }
      ],
      "name": "OwnableUnauthorizedAccount",
      "type": "error"
    },
    {
      "anonymous": false,
      "inputs": [
        {
          "indexed": true,
          "internalType": "address",
          "name": "owner",
          "type": "address"
        },
        {
          "indexed": true,
          "internalType": "address",
          "name": "spender",
          "type": "address"
        },
        {
          "indexed": false,
          "internalType": "uint256",
          "name": "value",
          "type": "uint256"
        }
      ],
      "name": "Approval",
      "type": "event"
    },
    {
      "anonymous": false,
      "inputs": [
        {
          "indexed": true,
          "internalType": "address",
          "name": "previousOwner",
          "type": "address"
        },
        {
          "indexed": true,
          "internalType": "address",
          "name": "newOwner",
          "type": "address"
        }
      ],
      "name": "OwnershipTransferred",
      "type": "event"
    },
    {
      "anonymous": false,
      "inputs": [
        {
          "indexed": true,
          "internalType": "address",
          "name": "from",
          "type": "address"
        },
        {
          "indexed": true,
          "internalType": "address",
          "name": "to",
          "type": "address"
        },
        {
          "indexed": false,
          "internalType": "uint256",
          "name": "value",
          "type": "uint256"
        }
      ],
      "name": "Transfer",
      "type": "event"
    },
    {
      "inputs": [
        {
          "internalType": "address",
          "name": "owner",
          "type": "address"
        },
        {
          "internalType": "address",
          "name": "spender",
          "type": "address"
        }
      ],
      "name": "allowance",
      "outputs": [
        {
          "internalType": "uint256",
          "name": "",
          "type": "uint256"
        }
      ],
      "stateMutability": "view",
      "type": "function"
    },
    {
      "inputs": [
        {
          "internalType": "address",
          "name": "spender",
          "type": "address"
        },
        {
          "internalType": "uint256",
          "name": "value",
          "type": "uint256"
        }
      ],
      "name": "approve",
      "outputs": [
        {
          "internalType": "bool",
          "name": "",
          "type": "bool"
        }
      ],
      "stateMutability": "nonpayable",
      "type": "function"
    },
    {
      "inputs": [
        {
          "internalType": "address",
          "name": "account",
          "type": "address"
        }
      ],
      "name": "balanceOf",
      "outputs": [
        {
          "internalType": "uint256",
          "name": "",
          "type": "uint256"
        }
      ],
      "stateMutability": "view",
      "type": "function"
    },
    {
      "inputs": [],
      "name": "decimals",
      "outputs": [
        {
          "internalType": "uint8",
          "name": "",
          "type": "uint8"
        }
      ],
      "stateMutability": "view",
      "type": "function"
    },
    {
      "inputs": [
        {
          "internalType": "address",
          "name": "to",
          "type": "address"
        },
        {
          "internalType": "uint256",
          "name": "amount",
          "type": "uint256"
        }
      ],
      "name": "mint",
      "outputs": [],
      "stateMutability": "nonpayable",
      "type": "function"
    },
    {
      "inputs": [],
      "name": "name",
      "outputs": [
        {
          "internalType": "string",
          "name": "",
          "type": "string"
        }
      ],
      "stateMutability": "view",
      "type": "function"
    },
    {
      "inputs": [],
      "name": "owner",
      "outputs": [
        {
          "internalType": "address",
          "name": "",
          "type": "address"
        }
      ],
      "stateMutability": "view",
      "type": "function"
    },
    {
      "inputs": [],
      "name": "renounceOwnership",
      "outputs": [],
      "stateMutability": "nonpayable",
      "type": "function"
    },
    {
      "inputs": [],
      "name": "symbol",
      "outputs": [
        {
          "internalType": "string",
          "name": "",
          "type": "string"
        }
      ],
      "stateMutability": "view",
      "type": "function"
    },
    {
      "inputs": [],
      "name": "totalSupply",
      "outputs": [
        {
          "internalType": "uint256",
          "name": "",
          "type": "uint256"
        }
      ],
      "stateMutability": "view",
      "type": "function"
    },
    {
      "inputs": [
        {
          "internalType": "address",
          "name": "to",
          "type": "address"
        },
        {
          "internalType": "uint256",
          "name": "value",
          "type": "uint256"
        }
      ],
      "name": "transfer",
      "outputs": [
        {
          "internalType": "bool",
          "name": "",
          "type": "bool"
        }
      ],
      "stateMutability": "nonpayable",
      "type": "function"
    },
    {
      "inputs": [
        {
          "internalType": "address",
          "name": "from",
          "type": "address"
        },
        {
          "internalType": "address",
          "name": "to",
          "type": "address"
        },
        {
          "internalType": "uint256",
          "name": "value",
          "type": "uint256"
        }
      ],
      "name": "transferFrom",
      "outputs": [
        {
          "internalType": "bool",
          "name": "",
          "type": "bool"
        }
      ],
      "stateMutability": "nonpayable",
      "type": "function"
    },
    {
      "inputs": [
        {
          "internalType": "address",
          "name": "newOwner",
          "type": "address"
        }
      ],
      "name": "transferOwnership",
      "outputs": [],
      "stateMutability": "nonpayable",
      "type": "function"
    }
  ],
  "bytecode": "0x608060405234620003675762000cba803803806200001d816200036b565b928339810190604081830312620003675780516001600160401b03908181116200036757836200004f91840162000391565b916020938482015183811162000367576200006b920162000391565b825182811162000272576003918254916001958684811c941680156200035c575b8885101462000348578190601f94858111620002f5575b50889085831160011462000292575f9262000286575b50505f1982861b1c191690861b1783555b8051938411620002725760049586548681811c9116801562000267575b8282101462000254578381116200020c575b5080928511600114620001a257509383949184925f9562000196575b50501b925f19911b1c19161781555b33156200017f5760058054336001600160a01b03198216811790925560405191906001600160a01b03167f8be0079c531659141344cd1fd0a4f28419497f9722a3daafe3b4186f6b6457e05f80a36108b89081620004028239f35b6024905f60405191631e4fbdf760e01b8352820152fd5b015193505f8062000115565b92919084601f198116885f52855f20955f905b89838310620001f15750505010620001d7575b50505050811b01815562000124565b01519060f8845f19921b161c191690555f808080620001c8565b858701518955909701969485019488935090810190620001b5565b875f52815f208480880160051c8201928489106200024a575b0160051c019087905b8281106200023e575050620000f9565b5f81550187906200022e565b9250819262000225565b602288634e487b7160e01b5f525260245ffd5b90607f1690620000e7565b634e487b7160e01b5f52604160045260245ffd5b015190505f80620000b9565b90889350601f19831691875f528a5f20925f5b8c828210620002de5750508411620002c6575b505050811b018355620000ca565b01515f1983881b60f8161c191690555f8080620002b8565b8385015186558c97909501949384019301620002a5565b909150855f52885f208580850160051c8201928b86106200033e575b918a91869594930160051c01915b8281106200032f575050620000a3565b5f81558594508a91016200031f565b9250819262000311565b634e487b7160e01b5f52602260045260245ffd5b93607f16936200008c565b5f80fd5b6040519190601f01601f191682016001600160401b038111838210176200027257604052565b919080601f84011215620003675782516001600160401b0381116200027257602090620003c7601f8201601f191683016200036b565b9281845282828701011162000367575f5b818110620003ed5750825f9394955001015290565b8581018301518482018401528201620003d856fe608060409080825260049081361015610016575f80fd5b5f3560e01c90816306fdde031461061357508063095ea7b31461056a57806318160ddd1461054c57806323b872dd1461045b578063313ce5671461044057806340c10f191461039257806370a082311461035c578063715018a6146103015780638da5cb5b146102d957806395d89b41146101b9578063a9059cbb14610189578063dd62ed3e146101405763f2fde38b146100af575f80fd5b3461013c57602036600319011261013c576100c8610750565b906100d1610856565b6001600160a01b03918216928315610126575050600554826bffffffffffffffffffffffff60a01b821617600555167f8be0079c531659141344cd1fd0a4f28419497f9722a3daafe3b4186f6b6457e05f80a3005b905f6024925191631e4fbdf760e01b8352820152fd5b5f80fd5b823461013c578060031936011261013c5760209061015c610750565b610164610766565b9060018060a01b038091165f5260018452825f2091165f528252805f20549051908152f35b823461013c578060031936011261013c576020906101b26101a8610750565b602435903361077c565b5160018152f35b50903461013c575f36600319011261013c578051905f835460018160011c90600183169283156102cf575b60209384841081146102bc578388529081156102a0575060011461024c575b505050829003601f01601f191682019267ffffffffffffffff8411838510176102395750829182610235925282610709565b0390f35b604190634e487b7160e01b5f525260245ffd5b5f878152929350837f8a35acfbc15ff81a39ae7d344fd709f28e8600b4aa8c65c6b64bfe7fe36bd19b5b83851061028c57505050508301015f8080610203565b805488860183015293019284908201610276565b60ff1916878501525050151560051b84010190505f8080610203565b602289634e487b7160e01b5f525260245ffd5b91607f16916101e4565b823461013c575f36600319011261013c5760055490516001600160a01b039091168152602090f35b3461013c575f36600319011261013c57610319610856565b600580546001600160a01b031981169091555f906001600160a01b03167f8be0079c531659141344cd1fd0a4f28419497f9722a3daafe3b4186f6b6457e08280a3005b823461013c57602036600319011261013c576020906001600160a01b03610381610750565b165f525f8252805f20549051908152f35b50903461013c578060031936011261013c576103ac610750565b90602435916103b9610856565b6001600160a01b031692831561042b576002549083820180921161041857505f927fddf252ad1be2c89b69c2b068fc378daa952ba7f163c4a11628f55a4df523b3ef9260209260025585855284835280852082815401905551908152a3005b601190634e487b7160e01b5f525260245ffd5b5f602492519163ec442f0560e01b8352820152fd5b823461013c575f36600319011261013c576020905160128152f35b503461013c57606036600319011261013c57610475610750565b61047d610766565b906044359260018060a01b038216805f526001602052855f20335f52602052855f2054915f1983106104b8575b6020876101b288888861077c565b85831061052057811561050a5733156104f457505f908152600160209081528682203383528152908690209185900390915582906101b26104aa565b6024905f885191634a1406b160e11b8352820152fd5b6024905f88519163e602df0560e01b8352820152fd5b8651637dc7a0d960e11b8152339181019182526020820193909352604081018690528291506060010390fd5b823461013c575f36600319011261013c576020906002549051908152f35b50903461013c578060031936011261013c57610584610750565b6024359033156105fd576001600160a01b03169081156105e75760209350335f5260018452825f20825f52845280835f205582519081527f8c5be1e5ebec7d5bd14f71427d1e84f3dd0314c0f7b2291e5b200ac8c7c3b925843392a35160018152f35b8251634a1406b160e11b81525f81860152602490fd5b825163e602df0560e01b81525f81860152602490fd5b9050823461013c575f36600319011261013c575f60035460018160011c90600183169283156106ff575b60209384841081146102bc578388529081156106e3575060011461068d57505050829003601f01601f191682019267ffffffffffffffff8411838510176102395750829182610235925282610709565b60035f908152929350837fc2575a0e9e593c00f959f8c92f12db2869c3395a3b0502d05e2516446f71f85b5b8385106106cf5750505050830101848080610203565b8054888601830152930192849082016106b9565b60ff1916878501525050151560051b8401019050848080610203565b91607f169161063d565b602080825282518183018190529093925f5b82811061073c57505060409293505f838284010152601f8019910116010190565b81810186015184820160400152850161071b565b600435906001600160a01b038216820361013c57565b602435906001600160a01b038216820361013c57565b916001600160a01b0380841692831561083e571692831561082657825f525f60205260405f2054908282106107f45750817fddf252ad1be2c89b69c2b068fc378daa952ba7f163c4a11628f55a4df523b3ef92602092855f525f84520360405f2055845f5260405f20818154019055604051908152a3565b60405163391434e360e21b81526001600160a01b03919091166004820152602481019190915260448101829052606490fd5b60405163ec442f0560e01b81525f6004820152602490fd5b604051634b637e8f60e11b81525f6004820152602490fd5b6005546001600160a01b0316330361086a57565b60405163118cdaa760e01b8152336004820152602490fdfea26469706673582212208a38563d2f1900daee992a3c451379b36e63c450ff3aa5b0d20a8fb4bb18964e64736f6c63430008180033",
  "linkReferences": {},
  "deployedLinkReferences": {}
}